:100000000200840200560000000000020000000010
:1000100000000002006D000000000002000000006F
:1000200000000002000000000000000200000000CC
:1000300000000002000000000000000200000000BC
:0E0040000000000000000000000000020000B0
:08004E00E493F608A3D9F9229E
:10005600C0D0C0E0C0F0C082C0830580D083D0820B
:07006600D0F0D0E0D0D03251
:10006D00C0D0C0E0C0F0C082C0831580D083D082E4
:07007D00D0F0D0E0D0D0323A
:10008400758180758000D2AFD2A8D2AAC288C28AF4
:06009400C2B8D2BA80FEE2
:00000001FF
